:100000000C9434000C9451000C9451000C94510049
:100010000C9451000C9451000C9451000C9451001C
:100020000C9451000C9451000C94F9020C94510062
:100030000C9451000C9451000C9451000C945100FC
:100040000C9451000C9451000C9451000C945100EC
:100050000C9451000C9451000C9451000C945100DC
:100060000C9451000C94510011241FBECFEFD8E026
:10007000DEBFCDBF11E0A0E0B1E0E2E8F4E102C0F4
:1000800005900D92A032B107D9F721E0A0E2B1E0CE
:1000900001C01D92A835B207E1F70E9427030C9416
:1000A0003F0A0C94000048B121E030E0613059F083
:1000B000B90102C0660F771F8A95E2F7CB018095E0
:1000C000842388B90895B90102C0660F771F8A9505
:1000D000E2F7CB01842B88B9089580FD0BC04298CC
:1000E00081FD0BC0439882FD0BC0449883FD0BC07B
:1000F00045980895429A81FFF5CF439A82FFF5CF44
:10010000449A83FFF5CF459A0895409880FD19C021
:10011000429881FD19C0439882FD19C0449883FD1F
:1001200019C04598419A8FE99FE00197F1F700C007
:10013000000041988FE99FE00197F1F700C00000AF
:100140000895429A81FFE7CF439A82FFE7CF449A0E
:1001500083FFE7CF459AE6CF40984298439844986A
:100160004598419A8FE99FE00197F1F700C00000A0
:1001700041988FE99FE00197F1F700C00000409897
:10018000429A439844984598419A8FE99FE0019795
:10019000F1F700C0000041988FE99FE00197F1F767
:1001A00000C000000895882309F44FC08130B9F1E0
:1001B000409890FD3FC0429891FD3FC0439892FD0A
:1001C0003FC0449893FD3FC04598419A8FE99FE016
:1001D0000197F1F700C0000041988FE99FE0019777
:1001E000F1F700C00000409820FD3FC0429821FD7B
:1001F0003AC0439822FD32C0449823FD32C045984E
:10020000419A8FE99FE00197F1F700C00000419803
:100210008FE99FE00197F1F700C00000089590EC8E
:10022000960F9595959595959595262F2F704098B5
:1002300090FFC1CF429A91FFC1CF439A92FFC1CFA5
:10024000449A93FFC1CF459AC0CF90E8960F9595F9
:10025000959595959595262F2F70AACF449A23FFB3
:10026000CECF459ACDCF439AC5CF429AC0CF4298C0
:100270004398449845982FEF89EF90E021508040B3
:100280009040E1F700C000004098429A439A449899
:100290004598419A8FE99FE00197F1F700C000006F
:1002A00041988FE99FE00197F1F700C000008FE1CE
:1002B0009EE40197F1F700C000004098429A439AEB
:1002C00044984598419A8FE99FE00197F1F700C063
:1002D000000041988FE99FE00197F1F700C000000E
:1002E0008FED9BEA0197F1F700C000004098429A19
:1002F000439A44984598419A8FE99FE00197F1F716
:1003000000C0000041988FE99FE00197F1F700C01D
:10031000000040984298439A44984598419A8FE942
:100320009FE00197F1F700C0000041988FE99FE03E
:100330000197F1F700C0000040984298439A449812
:100340004598419A8FE99FE00197F1F700C00000BE
:1003500041988FE99FE00197F1F700C000004098B5
:10036000429843984498459A419A8FE99FE00197B3
:10037000F1F700C0000041988FE99FE00197F1F785
:1003800000C0000040984298439844984598419A8C
:100390008FE99FE00197F1F700C0000041988FE9D5
:1003A0009FE00197F1F700C0000040984298439801
:1003B000449A459A419A8FE99FE00197F1F700C06E
:1003C000000041988FE99FE00197F1F700C000001D
:1003D00040984298439844984598419A8FE99FE005
:1003E0000197F1F700C0000041988FE99FE0019765
:1003F000F1F700C0000040984298439A449A45980B
:10040000419A8FE99FE00197F1F700C00000419801
:100410008FE99FE00197F1F700C000000895409A2E
:10042000982F959595959595959590FD2DC0429809
:1004300091FD2DC0439892FD2DC04498987069F5A8
:100440004598419A95E09A95F1F70000419895E01A
:100450009A95F1F7000080FD29C0429881FD24C0E3
:10046000439882FD1CC0449883FD1CC04598419A66
:1004700085E08A95F1F7000041988FE891E00197B7
:10048000F1F700C000000895429A91FFD3CF439A3C
:1004900092FFD3CF449A987099F2459AD2CF449A5A
:1004A00083FFE4CF459AE3CF439ADBCF429AD6CF7E
:1004B000FC019081992309F44DC031962FC04298D8
:1004C00021FD37C0439822FD37C044982870B9F504
:1004D0004598419A85E08A95F1F70000419885E0BA
:1004E0008A95F1F7000090FD33C0429891FD2EC02F
:1004F000439892FD26C0449893FD26C04598419AA2
:1005000095E09A95F1F7000041988FE891E0019706
:10051000F1F700C0000091919923E1F0409A292F52
:10052000259525952595259520FFC9CF429A21FF30
:10053000C9CF439A22FFC9CF449A287049F2459AFD
:10054000C8CF449A93FFDACF459AD9CF439AD1CFF7
:10055000429ACCCF08954098429A4398449845983F
:10056000419A8FE99FE00197F1F700C000004198A0
:100570008FE99FE00197F1F700C000004098429892
:100580004398449A459A419A8FE99FE00197F1F781
:1005900000C0000041988FE99FE00197F1F700C08B
:1005A000000008954098429A439844984598419A8B
:1005B0008FE99FE00197F1F700C0000041988FE9B3
:1005C0009FE00197F1F700C00000409842984398DF
:1005D0004498459A419A8FE99FE00197F1F700C04E
:1005E000000041988FE99FE00197F1F700C00000FB
:1005F00008951F920F920FB60F9211242F933F93DD
:100600008F93EF93FF93809129018823D9F087304E
:1006100060F42091860030918700E82FF0E0EE0F23
:10062000FF1FE35CFE4F318320838F5F809329019E
:10063000FF91EF918F913F912F910F900FBE0F90EF
:100640001F9018951092850010928400EECF8FE3D2
:1006500087B90E94370180E00E94850081E00E94F6
:10066000850088EF0E94850085E00E948500C1E03A
:10067000D1E08CE40E940F0289918111FBCF519A45
:100680008FB780688FBF80B78F7780BF80B78F7B31
:1006900080BF80917B00806480937B0080917A0092
:1006A0008F7780937A0080917C00876080937C00B4
:1006B00080B7846080BF80918100816080938100D9
:1006C00080916400877F80936400809181008068BE
:1006D0008093810080916F00806280936F005AE068
:1006E000C52ED12CE12CF12C6CE1262E61E0362EAA
:1006F0000EE211E0DBEA2FEF89E698E1215080401D
:100700009040E1F700C0000010922901599A0000C2
:100710000000000010928500109284005998EFEFBD
:10072000F1EE24E0E150F0402040E1F700C000008D
:100730006FEF7FEFA0E0B0E025E035E0C5E006C058
:100740002FEF2C0FCFEFC30F3C2F09F18C2F90E030
:10075000FC01EE0FFF1FE15CFE4F4081518141150E
:10076000510571F3880F991FFC01E35CFE4F8081F6
:100770009181481B590BA417B50708F4DA014617F5
:10078000570700F7BA01CFEFC30F3C2FF9F61092CD
:100790003E0120934B01B0932501A0932401709357
:1007A000280160932701E22FF0E0EE0FFF1FE15CCC
:1007B000FE4F6081718180913F0190914001681BE3
:1007C000790B80E090E030E040E050E00E941907B3
:1007D000CA01B90120935401309355014093560149
:1007E000509357010E94F5062B013C0160932A01AA
:1007F00070932B0180932C0190932D0193EC892E03
:1008000091E4992E9DE3A92E9CE3B92E01C0C82F37
:10081000C501B401A70196010E94190749015A01B7
:10082000C301B2010E94190781E08C0F2436310503
:100830004105510560F38092500190925101A092C0
:100840005201B092530120934C0130934D014093DB
:100850004E0150934F0180932601283E83E03807D4
:100860004105510590F0CA01B9012AE030E040E0AD
:1008700050E00E94190720934C0130934D014093A2
:100880004E0150934F01C09326013F932F933F9207
:100890002F921F930F930E945507909126019D9FC1
:1008A000812D11248695282F220F820F981B892FC6
:1008B0000F900F900F900F900F900F9009F022C1A2
:1008C00040984298439844984598419AEFE9FFE050
:1008D0003197F1F700C0000041988FE99FE0019740
:1008E000F1F700C000004098429A43984498459818
:1008F000419AEFE9FFE03197F1F700C0000041981D
:100900008FE99FE00197F1F700C0000040984298FE
:1009100043984498459A419AEFE9FFE03197F1F7FF
:1009200000C0000041988FE99FE00197F1F700C0F7
:100930000000409842984398449A4598419AEFE9BC
:10094000FFE03197F1F700C0000041988FE99FE088
:100950000197F1F700C00000209127013091280194
:100960008091540190915501A0915601B091570189
:10097000A90160E070E084179507A607B70708F49F
:1009800064C060912401709125014B01A12CB12C10
:1009900088169906AA06BB0608F457C0211531052A
:1009A00009F457C0621B730B0E940507643171057F
:1009B00008F44BC080912E01882309F41BC1EFE29B
:1009C000F1E030C0429891FD38C0439892FD38C0A4
:1009D00044989870C1F54598419A95E09A95F1F739
:1009E0000000419825E02A95F1F7000080FD00C144
:1009F000429881FDFBC0439882FDF3C0449883FD7B
:100A0000F3C04598419A85E08A95F1F70000419836
:100A10008FE891E00197F1F700C0000081918823F1
:100A200009F4E8C0409A982F9595959595959595D8
:100A300090FFC8CF429A91FFC8CF439A92FFC8CF88
:100A4000449A987041F2459AC7CF2F3F3F4F09F41F
:100A500078C0E7E1F1E085E42FC0429891FD37C00E
:100A6000439892FD37C044989870B9F54598419ADB
:100A700095E09A95F1F70000419825E02A95F1F765
:100A8000000080FD33C0429881FD2EC0439882FD56
:100A900026C0449883FD26C04598419A85E08A95F2
:100AA000F1F7000041988FE891E00197F1F700C05D
:100AB000000081918823E1F0409A982F95959595B3
:100AC0009595959590FFC9CF429A91FFC9CF439ACA
:100AD00092FFC9CF449A987049F2459AC8CF449A78
:100AE00083FFDACF459AD9CF439AD1CF429ACCCF60
:100AF0008CE0EFE3F1E011928A95E9F786E08093CC
:100B00003E01F9CD44E050E0481B51092EE08FE052
:100B100090E001C0232FDC01A25DBE4FFD013197A3
:100B200030813C93822F90E03FEF320F841795077E
:100B30008CF720933E01FC01E25DFE4F9EE2908324
:100B4000BFCEE2E1F1E08FE430C0429891FD38C0C1
:100B5000439892FD38C044989870C1F54598419AE1
:100B600025E02A95F1F70000419895E09A95F1F774
:100B7000000080FD34C0429881FD2FC0439882FD63
:100B800027C0449883FD27C04598419A25E02A95BF
:100B9000F1F7000041988FE891E00197F1F700C06C
:100BA00000008191882309F4A3CF409A982F95954E
:100BB00095959595959590FFC8CF429A91FFC8CF8E
:100BC000439A92FFC8CF449A987041F2459AC7CF92
:100BD000449A83FFD9CF459AD8CF439AD0CF429A2F
:100BE000CBCF449A83FF0DCF459A0CCF439A04CFC5
:100BF000429AFFCE80912601893008F450C0E9E086
:100C0000F1E08EE630C0429891FD38C0439892FDE5
:100C100038C044989870C1F54598419A95E09A95E6
:100C2000F1F70000419825E02A95F1F7000080FDDA
:100C300034C0429881FD2FC0439882FD27C044985C
:100C400083FD27C04598419A85E08A95F1F7000019
:100C500041988FE891E00197F1F700C00000819181
:100C6000882309F445CF409A982F959595959595A9
:100C7000959590FFC8CF429A91FFC8CF439A92FFB3
:100C8000C8CF449A987041F2459AC7CF449A83FFDF
:100C9000D9CF459AD8CF439AD0CF429ACBCF86307E
:100CA00008F450C0ECE0F1E085E730C0429891FDD7
:100CB00038C0439892FD38C044989870C1F5459863
:100CC000419A25E02A95F1F70000419895E09A9520
:100CD000F1F7000080FD34C0429881FD2FC0439899
:100CE00082FD27C0449883FD27C04598419A25E09E
:100CF0002A95F1F7000041988FE891E00197F1F70C
:100D000000C000008191882309F4F2CE409A982F08
:100D1000959595959595959590FFC8CF429A91FF99
:100D2000C8CF439A92FFC8CF449A987041F2459A2F
:100D3000C7CF449A83FFD9CF459AD8CF439AD0CF13
:100D4000429ACBCF833008F4D3CEEFE0F1E08DE6CA
:100D500030C0429891FD38C0439892FD38C0449805
:100D60009870C1F54598419A95E09A95F1F7000081
:100D7000419825E02A95F1F7000080FD34C04298A3
:100D800081FD2FC0439882FD27C0449883FD27C072
:100D90004598419A85E08A95F1F7000041988FE8DF
:100DA00091E00197F1F700C000008191882309F4D8
:100DB0009FCE409A982F959595959595959590FFEE
:100DC000C8CF429A91FFC8CF439A92FFC8CF449AA6
:100DD000987041F2459AC7CF449A83FFD9CF459A7C
:100DE000D8CF439AD0CF429ACBCFDB018F939F933A
:100DF0000E943B07BF91AF91A29F800D911DA39FC1
:100E0000900DB29F900D11240895AA1BBB1B51E1B8
:100E100007C0AA1FBB1FA617B70710F0A61BB70B6A
:100E2000881F991F5A95A9F780959095BC01CD010F
:100E30000895A1E21A2EAA1BBB1BFD010DC0AA1F1B
:100E4000BB1FEE1FFF1FA217B307E407F50720F033
:100E5000A21BB30BE40BF50B661F771F881F991FAE
:100E60001A9469F760957095809590959B01AC01F7
:100E7000BD01CF0108950E944607A59F900DB49F24
:100E8000900DA49F800D911D11240895A29FB00183
:100E9000B39FC001A39F700D811D1124911DB29FAE
:100EA000700D811D1124911D0895AEE0B0E0EBE5B9
:100EB000F7E00C94160A0D891E8986E08C831A834C
:100EC00009838FEF9FE79E838D83AE01475E5F4F5F
:100ED0006F89788DCE0101960E947707EF81F885A2
:100EE000E00FF11F10822E96E4E00C94320AABE082
:100EF000B0E0EDE7F7E00C94080A6C017B018A0191
:100F0000FC0117821682838181FFCCC1CE0101963C
:100F10003C01F6019381F70193FD859193FF819147
:100F20007F01882309F4BAC1853239F493FD859194
:100F300093FF81917F01853229F4B60190E00E94F0
:100F40006E09E7CF912C212C312CFFE1F315D8F05D
:100F50008B3279F038F4803279F08332A1F4232D8A
:100F600020611DC08D3261F0803369F4232D216032
:100F700016C0832D8260382EE32DE4603E2E2AC0F9
:100F8000F32DF8601DC037FC2DC020ED280F2A304E
:100F900040F08E32B9F436FC81C1232D2064322E0C
:100FA00019C036FE06C08AE0989E200D1124922EAC
:100FB00011C0EAE02E9E200D1124222EF32DF062A6
:100FC0003F2E08C08C3621F4832D8068382E02C055
:100FD000883641F4F70193FD859193FF81917F015C
:100FE0008111B3CF982F9F7D9554933028F40C5FD7
:100FF0001F4F9FE399830DC0833631F0833771F023
:10100000833509F059C021C0F801808189830E5FC2
:101010001F4F88248394912C530113C02801F2E0C0
:101020004F0E511CF801A080B18036FE03C0692D1F
:1010300070E002C06FEF7FEFC5010E9463094C01B1
:101040008201F32DFF773F2E16C0280122E0420EC9
:10105000511CF801A080B18036FE03C0692D70E0FC
:1010600002C06FEF7FEFC5010E9458094C01F32DBC
:10107000F0683F2E820133FC1BC0822D90E0881661
:101080009906B0F4B60180E290E00E946E092A94BD
:10109000F4CFF50137FC859137FE81915F01B601F0
:1010A00090E00E946E0921102A9421E0821A910892
:1010B0008114910471F7E8C0843611F0893641F546
:1010C000F80137FE07C060817181828193810C5FD6
:1010D0001F4F08C060817181072E000C880B990B8F
:1010E0000E5F1F4FF32DFF763F2E97FF09C090959F
:1010F0008095709561957F4F8F4F9F4FF0683F2E81
:101100002AE030E0A3010E94AA09882E861845C073
:10111000853731F4232D2F7EB22E2AE030E025C012
:10112000932D997FB92E8F36C1F018F4883579F058
:10113000B5C0803719F0883721F0B0C0E92FE061E1
:10114000BE2EB4FE0DC0FB2DF460BF2E09C034FED0
:101150000AC0292F2660B22E06C028E030E005C064
:1011600020E130E002C020E132E0F801B7FE07C024
:1011700060817181828193810C5F1F4F06C0608105
:10118000718180E090E00E5F1F4FA3010E94AA09C9
:10119000882E8618FB2DFF773F2E36FE0DC0232D9F
:1011A0002E7FA22E891458F434FE0BC032FC09C0E5
:1011B000832D8E7EA82E05C0B82CA32C03C0B82C7E
:1011C00001C0B92CA4FE0FC0FE01E80DF11D808105
:1011D000803321F49A2D997EA92E09C0A2FE06C063
:1011E000B394B39404C08A2D867809F0B394A3FC19
:1011F00011C0A0FE06C0B21488F4280C922C9B18D3
:101200000EC0B21460F4B60180E290E00E946E0954
:10121000B394F7CFB21418F42B1802C0982C212CD9
:10122000A4FE10C0B60180E390E00E946E09A2FE09
:1012300017C0A1FC03C088E790E002C088E590E0F9
:10124000B6010CC08A2D867859F0A1FE02C08BE24F
:1012500001C080E2A7FC8DE2B60190E00E946E0919
:10126000891438F4B60180E390E00E946E099A94E4
:10127000F7CF8A94F301E80DF11D8081B60190E06B
:101280000E946E098110F5CF222009F442CEB601EA
:1012900080E290E00E946E092A94F6CFF6018681E2
:1012A000978102C08FEF9FEF2B96E2E10C94240A06
:1012B000FC010590615070400110D8F78095909521
:1012C0008E0F9F1F0895FC01615070400190011026
:1012D000D8F7809590958E0F9F1F08950F931F93B9
:1012E000CF93DF93FB01238121FD03C08FEF9FEF9D
:1012F0002CC022FF16C046815781248135814217B8
:10130000530744F4A081B1819D012F5F3F4F31838A
:1013100020838C93268137812F5F3F4F378326832D
:1013200014C08B01EC01FB010084F185E02D0995CF
:10133000892BE1F6D80116968D919C91179701960D
:1013400017969C938E931697CE01DF91CF911F91A4
:101350000F910895FA01AA27283051F1203181F127
:10136000E8946F936E7F6E5F7F4F8F4F9F4FAF4FAD
:10137000B1E03ED0B4E03CD0670F781F891F9A1FC0
:10138000A11D680F791F8A1F911DA11D6A0F711D74
:10139000811D911DA11D20D009F468943F912AE080
:1013A000269F11243019305D3193DEF6CF01089568
:1013B000462F4770405D4193B3E00FD0C9F7F6CF99
:1013C000462F4F70405D4A3318F0495D31FD405261
:1013D000419302D0A9F7EACFB4E0A69597958795F7
:1013E00077956795BA95C9F70097610571050895D6
:1013F0009B01AC010A2E0694579547953795279582
:10140000BA95C9F7620F731F841F951FA01D089519
:101410002F923F924F925F926F927F928F929F9204
:10142000AF92BF92CF92DF92EF92FF920F931F93F2
:10143000CF93DF93CDB7DEB7CA1BDB0B0FB6F894A3
:10144000DEBF0FBECDBF09942A88398848885F84E3
:101450006E847D848C849B84AA84B984C884DF8054
:10146000EE80FD800C811B81AA81B981CE0FD11D38
:101470000FB6F894DEBF0FBECDBFED010895F8940E
:02148000FFCF9C
:101482004C204D65746572006E48007548006D48C9
:10149200004F70656E004572726F72002564000025
:00000001FF
